:100000000C9434000C94CF060C9451000C945100C5
:100010000C9451000C9451000C9451000C9451001C
:100020000C9451000C9451000C9451000C9451000C
:100030000C9451000C9451000C9477080C945100CE
:100040000C9451000C9451000C9451000C945100EC
:100050000C9451000C9451000C9451000C945100DC
:100060000C9451000C94510011241FBECFEFD8E026
:10007000DEBFCDBF12E0A0E0B1E0EEE5F3E102C0EB
:1000800005900D92AA31B107D9F712E0AAE1B2E0CA
:1000900001C01D92A434B107E1F70E941B070C9424
:1000A000AD090C940000EF92FF920F931F937B0118
:1000B0008C0120E030E040E05FE40E94CF03882321
:1000C0008CF0C801B70120E030E040E05FE40E941E
:1000D000CB010E94FF039B01AC0120503040404007
:1000E000504806C0C801B7010E94FF039B01AC0144
:1000F000B901CA011F910F91FF90EF900895A0E000
:10010000B0E0E5E8F0E00C946009DC012B01FA01B5
:100110009C91923008F439C1EB018881823008F457
:1001200033C1943069F4843009F02FC111969C9149
:1001300011978981981709F428C1A0E0B1E025C181
:10014000843009F421C18230A9F4923009F01DC134
:100150009A01AD0188E0EA010990AE01E901099236
:100160009E018150C1F7E201898111969C918923FA
:10017000818308C1923009F407C112962D903C90FA
:100180001397EB018A819B811496AD90BD90CD9021
:10019000DC901797EC80FD800E811F819101281B58
:1001A000390BB90137FF04C066277727621B730B31
:1001B000603271050CF061C0121613066CF5370140
:1001C0004801062E04C096948794779467940A9405
:1001D000D2F721E030E040E050E004C0220F331FAE
:1001E000441F551F6A95D2F721503040404050407F
:1001F0002E213F2140235123211531054105510571
:1002000021F021E030E040E050E079018A01E62869
:10021000F728082919293CC0232BD1F1260E371EB7
:1002200035014601062E04C096948794779467940E
:100230000A94D2F721E030E040E050E004C0220F01
:10024000331F441F551F6A95D2F72150304040405C
:1002500050402A213B214C215D21211531054105CA
:10026000510521F021E030E040E050E059016A0101
:10027000A628B728C828D9280BC0821593052CF0CA
:100280001C01AA24BB24650103C0EE24FF248701BE
:1002900011969C91D20111968C91981709F445C042
:1002A000992339F0A80197012A193B094C095D09E6
:1002B00006C0A60195012E193F09400B510B57FDB1
:1002C00008C0118233822282248335834683578378
:1002D0001DC081E081833382228288279927DC0137
:1002E000821B930BA40BB50B84839583A683B783E2
:1002F0000DC0220F331F441F551F248335834683AF
:1003000057838281938101979383828324813581EE
:1003100046815781DA01C9010197A109B1098F5FAF
:100320009F4FAF4FBF4328F30BC09183338222828C
:10033000EA0CFB1C0C1D1D1DE482F582068317834D
:1003400083E08083248135814681578157FF1AC01D
:10035000C901AA2797FDA095BA2F81709070A0704F
:10036000B0705695479537952795822B932BA42BE4
:10037000B52B84839583A683B7838281938101966D
:1003800093838283DF0101C0D201CD01CDB7DEB7F7
:10039000E2E10C947C09A0E2B0E0E1EDF1E00C9424
:1003A0006C0969837A838B839C832D833E834F837F
:1003B0005887E9E0EE2EF12CEC0EFD1ECE010196E1
:1003C000B7010E94F0058E010F5E1F4FCE0105960A
:1003D000B8010E94F0058A8991E089278A8BC701BC
:1003E000B801AE01475E5F4F0E947F000E941B056F
:1003F000A096E6E00C948809A0E2B0E0E2E0F2E02A
:100400000C946C0969837A838B839C832D833E8350
:100410004F835887F9E0EF2EF12CEC0EFD1ECE0134
:100420000196B7010E94F0058E010F5E1F4FCE01AD
:100430000596B8010E94F005C701B801AE01475EFC
:100440005F4F0E947F000E941B05A096E6E00C947F
:100450008809A0E2B0E0EFE2F2E00C946009698361
:100460007A838B839C832D833E834F835887CE0171
:100470000196BE01675F7F4F0E94F005CE01059691
:10048000BE016F5E7F4F0E94F0059985923088F023
:1004900089898230C8F0943019F4823051F404C054
:1004A000843029F4923081F480E091E0C6C092302B
:1004B00049F420E09A858A89981321E02A87CE01A1
:1004C0000996BBC0823049F420E09A858A89981346
:1004D00021E02A8BCE014196B0C02D843E844F840A
:1004E00058886D887E888F88988CEE24FF24870139
:1004F000AA24BB24650140E050E060E070E0E0E049
:10050000F0E0C10181709070892BE9F0E60CF71CD6
:10051000081D191D9A01AB012A0D3B1D4C1D5D1DC7
:1005200080E090E0A0E0B0E0E614F70408051905CB
:1005300020F481E090E0A0E0B0E0BA01A901480F0A
:10054000591F6A1F7B1FAA0CBB1CCC1CDD1C97FE0D
:1005500008C081E090E0A0E0B0E0A82AB92ACA2A49
:10056000DB2A3196E032F10549F0660C771C881CD5
:10057000991C5694479437942794C3CFFA85EA89F7
:100580002B893C898B859C85280F391F2E5F3F4F17
:1005900017C0CA0181709070892B61F0169507957C
:1005A000F794E79480E090E0A0E0B0E8E82AF92A28
:1005B0000A2B1B2B76956795579547952F5F3F4FD5
:1005C00077FDE7CF0CC0440F551F661F771F17FD3F
:1005D0004160EE0CFF1C001F111F215030404030C5
:1005E00090E0590790E0690790E4790760F32B8F5A
:1005F0003C8FDB01CA018F779070A070B07080349F
:100600009105A105B10561F447FD0AC0E114F104AB
:100610000105110529F0405C5F4F6F4F7F4F407817
:100620001A8EFE1711F081E08A8F4D8F5E8F6F8FCB
:1006300078A383E0898FCE0149960E941B05A0967E
:10064000E2E10C947C09A8E1B0E0E9E2F3E00C946B
:10065000680969837A838B839C832D833E834F83D0
:100660005887B9E0EB2EF12CEC0EFD1ECE01019661
:10067000B7010E94F0058E010F5E1F4FCE01059657
:10068000B8010E94F0052985223008F47EC039891E
:10069000323010F4B8017CC08A859A8989278A870C
:1006A000243011F0223031F4231709F06EC060E0DD
:1006B00071E06EC0343039F41D861E861F86188A9C
:1006C0001C861B8604C0323021F484E08987B70180
:1006D0005FC02B853C858B899C89281B390B3C8707
:1006E0002B87ED84FE840F851889AD88BE88CF885E
:1006F000D88CEA14FB040C051D0540F4EE0CFF1C1D
:10070000001F111F215030403C872B8720E030E034
:1007100040E050E080E090E0A0E0B0E460E070E015
:10072000EA14FB040C051D0540F0282B392B4A2B3D
:100730005B2BEA18FB080C091D09B695A795979540
:100740008795EE0CFF1C001F111F6F5F7F4F6F31ED
:10075000710531F7DA01C9018F779070A070B07020
:1007600080349105A105B10561F427FD0AC0E114AB
:10077000F1040105110529F0205C3F4F4F4F5F4FF9
:1007800020782D873E874F87588BBE01675F7F4F4C
:10079000CB010E941B056896EAE00C948409A8E14D
:1007A000B0E0E5EDF3E00C946C0969837A838B8308
:1007B0009C832D833E834F83588789E0E82EF12C5C
:1007C000EC0EFD1ECE010196B7010E94F0058E01D0
:1007D0000F5E1F4FCE010596B8010E94F005898576
:1007E000823040F08989823028F0C701B8010E9428
:1007F000680601C08FEF6896E6E00C948809ACE0CB
:10080000B0E0E5E0F4E00C94700969837A838B83AF
:100810009C83CE010196BE016B5F7F4F0E94F00565
:100820008D81823061F1823050F1843021F48E81EB
:10083000882351F12EC02F81388537FD20C06E816D
:100840002F3131051CF06623F9F023C08EE190E0D2
:10085000821B930B29853A854B855C8504C0569590
:100860004795379527958A95D2F76623B1F050952D
:100870004095309521953F4F4F4F5F4F0EC020E080
:1008800030E040E050E009C02FEF3FEF4FEF5FE76F
:1008900004C020E030E040E050E8B901CA012C96E5
:1008A000E2E00C948C09A8E0B0E0E9E5F4E00C94F7
:1008B00068097B018C01611571058105910519F4A9
:1008C00082E0898360C083E089838EE1C82ED12CC9
:1008D000DC82CB82ED82FE820F831887C801B701CC
:1008E0000E94CC04FC013197F7FF3BC0222733273D
:1008F0002E1B3F0B57016801022E04C0D694C794EB
:10090000B794A7940A94D2F740E050E060E070E01A
:1009100081E090E0A0E0B0E004C0880F991FAA1F1A
:10092000BB1F2A95D2F70197A109B1098E219F21FA
:10093000A023B1230097A105B10521F041E050E0CB
:1009400060E070E04A295B296C297D294D835E8334
:100950006F8378878EE190E08E1B9F0B9C838B8347
:1009600012C0309781F00E2E04C0EE0CFF1C001F49
:10097000111F0A94D2F7ED82FE820F831887CE1AD8
:10098000DF0ADC82CB821A82CE0101960E941B050F
:100990002896EAE00C948409EF92FF920F931F933C
:1009A0007B018C0180E0E81680E0F80681E0080712
:1009B00080E0180788F48FEFE816F10401051105AF
:1009C00031F028F088E090E0A0E0B0E017C080E0CF
:1009D00090E0A0E0B0E012C080E0E81680E0F80609
:1009E00080E0080781E0180728F088E190E0A0E0A7
:1009F000B0E004C080E190E0A0E0B0E020E230E0B0
:100A000040E050E0281B390B4A0B5B0B04C01695E5
:100A10000795F794E7948A95D2F7F701E85FFE4FC0
:100A20008081281B310941095109C9011F910F918A
:100A3000FF90EF900895DF92EF92FF920F931F9334
:100A4000FC01E480F58006811781D18080818230AD
:100A500048F480E090E0A0E1B0E0E82AF92A0A2B0F
:100A60001B2BA5C0843009F49FC0823021F4EE24F2
:100A7000FF24870105C0E114F1040105110519F4F3
:100A8000E0E0F0E096C0628173819FEF6238790701
:100A90000CF05BC022E83FEF261B370B2A313105F3
:100AA0002CF020E030E040E050E02AC0B801A7017F
:100AB000022E04C076956795579547950A94D2F70C
:100AC00081E090E0A0E0B0E004C0880F991FAA1F69
:100AD000BB1F2A95D2F70197A109B1098E219F2149
:100AE000A023B1230097A105B10521F081E090E09A
:100AF000A0E0B0E09A01AB01282B392B4A2B5B2BED
:100B0000DA01C9018F779070A070B07080349105C0
:100B1000A105B10539F427FF09C0205C3F4F4F4FB5
:100B20005F4F04C0215C3F4F4F4F5F4FE0E0F0E06C
:100B30002030A0E03A07A0E04A07A0E45A0710F0EE
:100B4000E1E0F0E079018A0127C06038710564F5C1
:100B5000FB01E158FF4FD801C7018F779070A0705B
:100B6000B07080349105A105B10539F4E7FE0DC0E0
:100B700080E490E0A0E0B0E004C08FE390E0A0E06B
:100B8000B0E0E80EF91E0A1F1B1F17FF05C01695DF
:100B90000795F794E794319687E016950795F794B3
:100BA000E7948A95D1F705C0EE24FF248701EFEF83
:100BB000F0E06E2F679566276795902F9F77D79403
:100BC000DD24D7948E2F8695492F462B582F5D29EB
:100BD000B701CA011F910F91FF90EF90DF90089528
:100BE000FC01DB01408151812281622F6F7770E02F
:100BF000221F2227221F9381892F880F822B282FC3
:100C000030E0991F9927991F11969C9311972115F0
:100C10003105A9F5411551056105710511F482E011
:100C200037C082E89FEF13969C938E9312979A0198
:100C3000AB0167E0220F331F441F551F6A95D1F7A0
:100C400083E08C930DC0220F331F441F551F129653
:100C50008D919C911397019713969C938E93129765
:100C6000203080E0380780E0480780E4580758F3D8
:100C700014962D933D934D935C93179708952F3FB2
:100C8000310579F4411551056105710519F484E0C8
:100C90008C93089564FF03C081E08C9312C01C9272
:100CA00010C02F57304013963C932E93129783E039
:100CB0008C9387E0440F551F661F771F8A95D1F7E5
:100CC000706414964D935D936D937C93179708957C
:100CD0001F93DC01FB019C91923008F447C0808196
:100CE000823008F443C0943051F411961C91843042
:100CF00099F58181682F70E0611B71093FC08430D4
:100D000021F0923031F48230B9F18181882389F168
:100D10002DC011961C9111978230F1F08181181726
:100D2000D9F412962D913C91139782819381821769
:100D3000930794F028173907BCF014968D919D9174
:100D40000D90BC91A02D24813581468157812817B3
:100D500039074A075B0718F4112341F00AC08217CC
:100D60009307A407B50740F4112319F061E070E080
:100D700005C06FEF7FEF02C060E070E0CB011F9114
:100D800008951AB88AB18AB91BB88BB18C608BB937
:100D900014B884B1806384B917B818B808951F9245
:100DA0000F920FB60F9211242F933F934F935F939F
:100DB0006F937F938F939F93AF93BF93EF93FF9323
:100DC0001DBA4B9905C080910A02815080930A0296
:100DD0004B9B05C080910A028F5F80930A020E949C
:100DE000AA0860931A0270931B0280931C029093CE
:100DF0001D0288E592E020E931E0F9013197F1F731
:100E00000197D9F7E89A80910802823019F481E0BD
:100E100080930802FF91EF91BF91AF919F918F91C5
:100E20007F916F915F914F913F912F910F900FBEE6
:100E30000F901F9018951F93CF93DF93F8940E9403
:100E4000C1060E9413080E9416080E949C0887E6AB
:100E500090E00E94C00881E090E00E949709809392
:100E60000A02789484EF91E020E931E0F9013197AA
:100E7000F1F70197D9F7809169008260809369004A
:100E8000E89AC0E9D1E012E080910802813021F0B7
:100E9000823009F04EC039C00E94AA0820911A027F
:100EA00030911B0240911C0250911D02621B730B7A
:100EB000840B950B615A7F4080409040E8F081E0C0
:100EC00090E060910A020E949F0910921A0210920B
:100ED0001B0210921C0210921D020E94B7088CE0A7
:100EE00092E00E94CD0780ED97E0FE013197F1F787
:100EF0000197D9F71093080280910A02843610F006
:100F000010920A028AE092E016C00E9428080E940D
:100F10005300609309020E9428080E9453000E9417
:100F2000E50880E197E2FE013197F1F70197D9F7E3
:100F3000ABCF8BE092E00E94CD07A6CF88E48093F0
:100F4000B800E9EBF0E08081816080830895982FFC
:100F500084EA8093BC008091BC0087FFFCCF909313
:100F6000BB0084EC8093BC008091BC0087FFFCCF69
:100F7000FA0190E024EC0BC080818093BB002093A9
:100F8000BC008091BC0087FFFCCF9F5F3196961715
:100F900098F384E98093BC000895DF93CF9300D049
:100FA000CDB7DEB7FC014081842F6AE00E94320990
:100FB000282F2F702A3058F0483619F48EEF898385
:100FC0008A8380818936D1F48FEF898316C030E01F
:100FD000F901E35FFD4F8081898386EF9FEF289FB2
:100FE000F001299FF00D389FF00D1124E40FF11D41
:100FF000EF70F070E35FFD4F80818A8380E462E0F0
:10100000AE014F5F5F4F0E94A70784EF91E020E998
:1010100031E0F9013197F1F70197D9F70F900F906F
:10102000CF91DF9108950E949E070895ECE7F0E0CC
:101030001082808187648083EAE7F0E010828081FB
:10104000866C8083EBE7F0E01082808180830895D6
:1010500020E030E040E050E060E080917A00806481
:1010600080937A0080917A0086FDFCCF8091780091
:1010700090917900A0E0B0E0280F391F4A1F5B1F54
:101080006F5F6A3051F7CA01B9012AE030E040E0F1
:1010900050E00E943E09CA01B9010E94530408951C
:1010A000EF92FF920F931F930E94280820E030E0F8
:1010B00040EA50E40E9429027B018C0160E070E06C
:1010C00080EA90E4A80197010E94CB019B01AC014A
:1010D000C801B7010E94230320E030E44CE156E44C
:1010E0000E9429021F910F91FF90EF9008951F9287
:1010F0000F920FB60F9211248F939F93AF93BF93CC
:1011000080911E0290911F02A0912002B0912102B5
:101110000196A11DB11D80931E0290931F02A09302
:101120002002B0932102BF91AF919F918F910F90B8
:101130000FBE0F901F90189584B5826084BD85B551
:10114000836085BD89EF87BDEEE6F0E08081826037
:1011500080830895F89420911E0230911F024091DF
:101160002002509121027894B901CA010895109289
:101170001E0210921F021092200210922102089566
:101180009093C5008093C40088E18093C10086E0FD
:101190008093C200E0ECF0E0808180688083089555
:1011A000982F8091C00085FFFCCF9093C6000895D2
:1011B000FC0107C08091C00085FFFCCF3196909361
:1011C000C60090819923B1F70895DF92EF92FF92C4
:1011D0000F931F937B018C01909143028091C0007B
:1011E00085FFFCCF9093C60080E2D82E2AC08FEFF7
:1011F000D81691F18AE0E816F1040105110518F4FA
:101200006E2D81E009C0C801B7012AE030E040E05E
:1012100050E00E943E0980E0ED2DF0E0EE5DFD4FD4
:10122000605D6083882391F4C801B7012AE030E053
:1012300040E050E00E943E09C901DA017C018D01C5
:10124000DA94E114F1040105110589F68D2D90E081
:101250008E5D9D4F0E94D8081F910F91FF90EF90D7
:10126000DF900895991B79E004C0991F961708F044
:10127000961B881F7A95C9F780950895A1E21A2ECA
:10128000AA1BBB1BFD010DC0AA1FBB1FEE1FFF1F2A
:10129000A217B307E407F50720F0A21BB30BE40B7A
:1012A000F50B661F771F881F991F1A9469F76095C1
:1012B0007095809590959B01AC01BD01CF0108957B
:1012C0002F923F924F925F926F927F928F929F9256
:1012D000AF92BF92CF92DF92EF92FF920F931F9344
:1012E000CF93DF93CDB7DEB7CA1BDB0B0FB6F894F5
:1012F000DEBF0FBECDBF09942A88398848885F8435
:101300006E847D848C849B84AA84B984C884DF80A5
:10131000EE80FD800C811B81AA81B981CE0FD11D89
:101320000FB6F894DEBF0FBECDBFED010895F99959
:10133000FECF92BD81BDF89A992780B50895262FDA
:10134000F999FECF1FBA92BD81BD20BD0FB6F894AA
:0E135000FA9AF99A0FBE01960895F894FFCF0D
:10135E00000000000000000000010202030303036E
:10136E000404040404040404050505050505050527
:10137E000505050505050505060606060606060607
:10138E0006060606060606060606060606060606EF
:10139E0006060606060606060707070707070707D7
:1013AE0007070707070707070707070707070707BF
:1013BE0007070707070707070707070707070707AF
:1013CE00070707070707070707070707070707079F
:1013DE000707070707070707080808080808080887
:1013EE00080808080808080808080808080808086F
:1013FE00080808080808080808080808080808085F
:10140E00080808080808080808080808080808084E
:10141E00080808080808080808080808080808083E
:10142E00080808080808080808080808080808082E
:10143E00080808080808080808080808080808081E
:10144E00080808080808080808080808080808080E
:10145E000808080808080808020500686981CF9284
:0A146E0086CCA4A08F80847FFEFFCF
:00000001FF
